:1000000012C021C020C01FC01EC01DC01CC01BC00C
:100010001AC019C018C017C016C015C014C013C02C
:1000200012C011C010C011241FBECFE5D4E0DEBF46
:10003000CDBF20E0A0E6B0E001C01D92AE37B20710
:10004000E1F70BD3CEC3DCCF42B321E030E0B901FE
:1000500002C0660F771F8A95E2F7CB01962F909525
:10006000492342BB91B3892B81BB089588E480B9B1
:10007000089809980895CF93DF9300D0CDB7DEB7E5
:1000800080E489831A8242E0BE016F5F7F4F82E580
:100090002BD20F900F90DF91CF910895CF93DF93E4
:1000A00000D000D000D0CDB7DEB7198241E0BE014C
:1000B0006F5F7F4F82E518D2882309F4CFC08FE3AA
:1000C0009FE10197F1F700C0000046E0BE016F5FBD
:1000D0007F4F82E565D2882309F4C0C0FE013196C6
:1000E000A8E7B0E09E01295F3F4F97E18191892702
:1000F000895E8D93E217F307C9F7809164009091B0
:100100006500019669E070E045D3909365008093A7
:10011000640020917D00880F991FFC01EA59FF4F70
:10012000308123FD02C0316001C03E7F3083FC017D
:10013000EA59FF4F308124FD02C0326001C03D7F8B
:100140003083FC01EA59FF4F308126FD02C0346044
:1001500001C03B7F3083FC01EA59FF4F308125FD10
:1001600002C0386001C0377F308330917C00FC01D1
:10017000EA59FF4F408132FD02C0406101C04F7E0D
:100180004083FC01EA59FF4F408134FD02C04062C8
:1001900001C04F7D4083FC01EA59FF4F408133FD90
:1001A00002C0406401C04F7B4083FC01EA59FF4F0D
:1001B000408131FD02C0406801C04F774083FC019F
:1001C000EA59FF4F418135FD02C0416001C04E7FB9
:1001D0004183FC01EA59FF4F418122FD02C0426088
:1001E00001C04D7F4183FC01EA59FF4F418127FD4A
:1001F00002C0446001C04B7F4183FC01EA59FF4FBC
:10020000418120FD02C0486001C0477F4183FC015D
:10021000EA59FF4F418136FD02C0406101C04F7E67
:100220004183FC01EA59FF4F21FD03C02181206277
:1002300002C021812F7D2183FC01EA59FF4F2181DA
:1002400037FD02C0206401C02F7B2183FC01EA59E5
:10025000FF4F81818F77818381E006C09AE69A956E
:10026000F1F700C03AD180E026960FB6F894DEBFD1
:100270000FBECDBFDF91CF9108952FEF85EA9EE0AD
:10028000215080409040E1F700C00000EFDE2FEFEA
:100290008BED95E0215080409040E1F700C00000D8
:1002A000EADE8FE99FE00197F1F700C00000F6CE8B
:1002B0006111CACE41B321E030E0B90102C0660F3E
:1002C000771F8A95E2F7CB01962F9095942391BBE7
:1002D00092B3892B82BB0895CF93DF93282F80910F
:1002E000640090916500662341F0019669E070E03A
:1002F00051D2FC01EE0FFF1F03C0880F991FFC01B4
:10030000EA59FF4FC081D1812223E9F060E083E008
:1003100090E0CEDF61E08C2F897009F460E082E02C
:1003200090E0C6DF60E080E090E0C2DF60E081E066
:1003300090E0BEDFC67021F4D3FB662760F901C0F0
:1003400061E061701DC0C3FB662760F983E090E047
:10035000AFDF61E08C2F857009F460E082E090E00F
:10036000A7DFC1FB662760F980E090E0A1DFC4FB56
:10037000662760F981E090E09BDFD3FB662760F998
:1003800087E090E095DFD5FB662760F985E090E097
:100390008FDFD6FB662760F984E090E089DFD4FB2D
:1003A000662760F986E090E0DF91CF9181CFCF930F
:1003B000E0916400F0916500EE0FFF1FEA59FF4FD6
:1003C000C081818185FF0AC0209162003091630065
:1003D00021503109309363002093620086FF0AC0E8
:1003E00020916200309163002F5F3F4F3093630094
:1003F0002093620084FF0AC0209160003091610068
:100400002F5F3F4F309361002093600083FF09C04E
:1004100080916000909161000197909361008093BA
:100420006000809162009091630083709927823010
:10043000910591F08330910599F0019729F060E0E2
:1004400086E090E035DF03C086E090E0FDDD60E00F
:1004500084E090E02DDF0BC086E090E0F5DD04C085
:1004600060E086E090E024DF84E090E0EDDD8091C4
:10047000600090916100837099278230910591F01E
:100480008330910599F0019729F060E087E090E0D2
:100490000FDF03C087E090E0D7DD60E085E090E00B
:1004A00007DF0BC087E090E0CFDD04C060E087E0AD
:1004B00090E0FEDE85E090E0C7DDC1FB662760F9D5
:1004C00082E090E0F5DEC2FB662760F980E090E014
:1004D000CF91EECE11BA12BA089584E986BF85E3B2
:1004E0008A95F1F7000008950F931F9394EA96BF41
:1004F00001EA16E821E030E006B607FC05C001502D
:10050000110921093109C1F706B607FE38C091B1BA
:10051000987F983029F091B1987F903109F03BC0D5
:10052000880F83B984E886BF81EA96E8A1E0B0E04D
:1005300006B607FC04C00197A109B109C9F706B6C0
:1005400007FE1DC081B1887F883129F5262FFB0168
:1005500034E804C081B1887F8832E9F48E2F821B91
:100560008417B0F4819183B936BF81EA96E8A1E09F
:10057000B0E006B607FE07C006B607FCEBCF86B7AD
:10058000806886BF08C00197A109B10991F7F4CF2F
:10059000A4DF81E002C0A1DF80E01F910F910895E8
:1005A0000F931F9394EA96BF01EA16E821E030E02A
:1005B00006B607FC05C00150110921093109C1F730
:1005C00006B607FE39C091B1987F983029F091B1F5
:1005D000987F903109F03CC0880F8F5F83B984E821
:1005E00086BF81EA96E8A1E0B0E006B607FC04C049
:1005F0000197A109B109C9F706B607FE1DC081B16F
:10060000887F803429F5262FFB0134EC06C081B1A8
:10061000887F8035E9F483B181938E2F821B841704
:10062000A0F436BF81EA96E8A1E0B0E006B607FE86
:1006300007C006B607FCEBCF86B7806886BF08C048
:100640000197A109B10991F7F4CF47DF81E002C01A
:1006500044DF80E01F910F910895F12CE12CC1E05F
:10066000D0E008E710E0F8940FB6F894A89581B5AB
:10067000886181BD11BC0FBEE6E6F0E010821182F8
:1006800032960E171F07D1F7A09A85E090E0A89A3E
:100690002FEF30E742E0215030404040E1F700C00A
:1006A0000000A8982FEF30E742E021503040404052
:1006B000E1F700C00000019751F77894DEDD0ADF12
:1006C0008F2D9E2DFC2EED2EA895C817D90731F43D
:1006D000E5DCC330D10579F46ADE18C0C12CD12C19
:1006E00060E0C601E5DD8FEFC81AD80A28E0C2161F
:1006F000D104B1F7EDCF61E0C430D10509F060E07D
:1007000081E0C230D10509F080E0E6DDE0916400CF
:10071000F0916500EE0FFF1FEA59FF4F8081918134
:1007200082FF11C085FF0FC093FF03C0A898C2E0ED
:10073000D0E094FF03C0A898C1E0D0E095FF03C0CB
:10074000A898C3E0D0E08271823129F496FF03C0FB
:10075000A89AC4E0D0E0809178008F3F09F0B0CF34
:10076000809179008F3F09F0ABCF80917A008F3F65
:1007700009F0A6CF80917B008F3F09F0A1CF809137
:100780007C008F3F09F09CCF80917D008F3F09F066
:1007900097CF69CF97FB072E16F4009406D077FD0C
:1007A00008D00BD007FC05D03EF4909581959F4F63
:1007B0000895709561957F4F0895AA1BBB1B51E169
:1007C00007C0AA1FBB1FA617B70710F0A61BB70BC1
:1007D000881F991F5A95A9F780959095BC01CD0166
:0607E0000895F894FFCF1C
:00000001FF
